{
  "address": "0xbcb60ff26412D7A27DDe9b61F0655A207eae80ed",
  "abi": [
    {
      "inputs": [
        {
          "internalType": "address",
          "name": "_owner",
          "type": "address"
        },
        {
          "internalType": "string",
          "name": "baseURI",
          "type": "string"
        }
      ],
      "stateMutability": "nonpayable",
      "type": "constructor"
    },
    {
      "inputs": [
        {
          "internalType": "address",
          "name": "sender",
          "type": "address"
        },
        {
          "internalType": "uint256",
          "name": "tokenId",
          "type": "uint256"
        },
        {
          "internalType": "address",
          "name": "owner",
          "type": "address"
        }
      ],
      "name": "ERC721IncorrectOwner",
      "type": "error"
    },
    {
      "inputs": [
        {
          "internalType": "address",
          "name": "operator",
          "type": "address"
        },
        {
          "internalType": "uint256",
          "name": "tokenId",
          "type": "uint256"
        }
      ],
      "name": "ERC721InsufficientApproval",
      "type": "error"
    },
    {
      "inputs": [
        {
          "internalType": "address",
          "name": "approver",
          "type": "address"
        }
      ],
      "name": "ERC721InvalidApprover",
      "type": "error"
    },
    {
      "inputs": [
        {
          "internalType": "address",
          "name": "operator",
          "type": "address"
        }
      ],
      "name": "ERC721InvalidOperator",
      "type": "error"
    },
    {
      "inputs": [
        {
          "internalType": "address",
          "name": "owner",
          "type": "address"
        }
      ],
      "name": "ERC721InvalidOwner",
      "type": "error"
    },
    {
      "inputs": [
        {
          "internalType": "address",
          "name": "receiver",
          "type": "address"
        }
      ],
      "name": "ERC721InvalidReceiver",
      "type": "error"
    },
    {
      "inputs": [
        {
          "internalType": "address",
          "name": "sender",
          "type": "address"
        }
      ],
      "name": "ERC721InvalidSender",
      "type": "error"
    },
    {
      "inputs": [
        {
          "internalType": "uint256",
          "name": "tokenId",
          "type": "uint256"
        }
      ],
      "name": "ERC721NonexistentToken",
      "type": "error"
    },
    {
      "inputs": [
        {
          "internalType": "address",
          "name": "owner",
          "type": "address"
        }
      ],
      "name": "OwnableInvalidOwner",
      "type": "error"
    },
    {
      "inputs": [
        {
          "internalType": "address",
          "name": "account",
          "type": "address"
        }
      ],
      "name": "OwnableUnauthorizedAccount",
      "type": "error"
    },
    {
      "inputs": [],
      "name": "ReentrancyGuardReentrantCall",
      "type": "error"
    },
    {
      "anonymous": false,
      "inputs": [
        {
          "indexed": true,
          "internalType": "address",
          "name": "account",
          "type": "address"
        }
      ],
      "name": "AddressRemovedFromWhitelist",
      "type": "event"
    },
    {
      "anonymous": false,
      "inputs": [
        {
          "indexed": true,
          "internalType": "address",
          "name": "account",
          "type": "address"
        }
      ],
      "name": "AddressWhitelisted",
      "type": "event"
    },
    {
      "anonymous": false,
      "inputs": [
        {
          "indexed": true,
          "internalType": "address",
          "name": "owner",
          "type": "address"
        },
        {
          "indexed": true,
          "internalType": "address",
          "name": "approved",
          "type": "address"
        },
        {
          "indexed": true,
          "internalType": "uint256",
          "name": "tokenId",
          "type": "uint256"
        }
      ],
      "name": "Approval",
      "type": "event"
    },
    {
      "anonymous": false,
      "inputs": [
        {
          "indexed": true,
          "internalType": "address",
          "name": "owner",
          "type": "address"
        },
        {
          "indexed": true,
          "internalType": "address",
          "name": "operator",
          "type": "address"
        },
        {
          "indexed": false,
          "internalType": "bool",
          "name": "approved",
          "type": "bool"
        }
      ],
      "name": "ApprovalForAll",
      "type": "event"
    },
    {
      "anonymous": false,
      "inputs": [
        {
          "indexed": true,
          "internalType": "address",
          "name": "previousOwner",
          "type": "address"
        },
        {
          "indexed": true,
          "internalType": "address",
          "name": "newOwner",
          "type": "address"
        }
      ],
      "name": "OwnershipTransferred",
      "type": "event"
    },
    {
      "anonymous": false,
      "inputs": [
        {
          "indexed": true,
          "internalType": "address",
          "name": "from",
          "type": "address"
        },
        {
          "indexed": true,
          "internalType": "address",
          "name": "to",
          "type": "address"
        },
        {
          "indexed": true,
          "internalType": "uint256",
          "name": "tokenId",
          "type": "uint256"
        }
      ],
      "name": "Transfer",
      "type": "event"
    },
    {
      "inputs": [
        {
          "internalType": "address",
          "name": "account",
          "type": "address"
        }
      ],
      "name": "addToWhitelist",
      "outputs": [],
      "stateMutability": "nonpayable",
      "type": "function"
    },
    {
      "inputs": [
        {
          "internalType": "address",
          "name": "to",
          "type": "address"
        },
        {
          "internalType": "uint256",
          "name": "tokenId",
          "type": "uint256"
        }
      ],
      "name": "approve",
      "outputs": [],
      "stateMutability": "nonpayable",
      "type": "function"
    },
    {
      "inputs": [
        {
          "internalType": "address",
          "name": "owner",
          "type": "address"
        }
      ],
      "name": "balanceOf",
      "outputs": [
        {
          "internalType": "uint256",
          "name": "",
          "type": "uint256"
        }
      ],
      "stateMutability": "view",
      "type": "function"
    },
    {
      "inputs": [],
      "name": "currentHolder",
      "outputs": [
        {
          "internalType": "address",
          "name": "",
          "type": "address"
        }
      ],
      "stateMutability": "view",
      "type": "function"
    },
    {
      "inputs": [
        {
          "internalType": "uint256",
          "name": "tokenId",
          "type": "uint256"
        }
      ],
      "name": "getApproved",
      "outputs": [
        {
          "internalType": "address",
          "name": "",
          "type": "address"
        }
      ],
      "stateMutability": "view",
      "type": "function"
    },
    {
      "inputs": [
        {
          "internalType": "address",
          "name": "owner",
          "type": "address"
        },
        {
          "internalType": "address",
          "name": "operator",
          "type": "address"
        }
      ],
      "name": "isApprovedForAll",
      "outputs": [
        {
          "internalType": "bool",
          "name": "",
          "type": "bool"
        }
      ],
      "stateMutability": "view",
      "type": "function"
    },
    {
      "inputs": [],
      "name": "name",
      "outputs": [
        {
          "internalType": "string",
          "name": "",
          "type": "string"
        }
      ],
      "stateMutability": "view",
      "type": "function"
    },
    {
      "inputs": [],
      "name": "owner",
      "outputs": [
        {
          "internalType": "address",
          "name": "",
          "type": "address"
        }
      ],
      "stateMutability": "view",
      "type": "function"
    },
    {
      "inputs": [
        {
          "internalType": "uint256",
          "name": "tokenId",
          "type": "uint256"
        }
      ],
      "name": "ownerOf",
      "outputs": [
        {
          "internalType": "address",
          "name": "",
          "type": "address"
        }
      ],
      "stateMutability": "view",
      "type": "function"
    },
    {
      "inputs": [
        {
          "internalType": "address",
          "name": "account",
          "type": "address"
        }
      ],
      "name": "removeFromWhitelist",
      "outputs": [],
      "stateMutability": "nonpayable",
      "type": "function"
    },
    {
      "inputs": [],
      "name": "renounceOwnership",
      "outputs": [],
      "stateMutability": "nonpayable",
      "type": "function"
    },
    {
      "inputs": [
        {
          "internalType": "address",
          "name": "from",
          "type": "address"
        },
        {
          "internalType": "address",
          "name": "to",
          "type": "address"
        },
        {
          "internalType": "uint256",
          "name": "tokenId",
          "type": "uint256"
        }
      ],
      "name": "safeTransferFrom",
      "outputs": [],
      "stateMutability": "nonpayable",
      "type": "function"
    },
    {
      "inputs": [
        {
          "internalType": "address",
          "name": "from",
          "type": "address"
        },
        {
          "internalType": "address",
          "name": "to",
          "type": "address"
        },
        {
          "internalType": "uint256",
          "name": "tokenId",
          "type": "uint256"
        },
        {
          "internalType": "bytes",
          "name": "data",
          "type": "bytes"
        }
      ],
      "name": "safeTransferFrom",
      "outputs": [],
      "stateMutability": "nonpayable",
      "type": "function"
    },
    {
      "inputs": [
        {
          "internalType": "address",
          "name": "operator",
          "type": "address"
        },
        {
          "internalType": "bool",
          "name": "approved",
          "type": "bool"
        }
      ],
      "name": "setApprovalForAll",
      "outputs": [],
      "stateMutability": "nonpayable",
      "type": "function"
    },
    {
      "inputs": [
        {
          "internalType": "string",
          "name": "baseURI",
          "type": "string"
        }
      ],
      "name": "setBaseURI",
      "outputs": [],
      "stateMutability": "nonpayable",
      "type": "function"
    },
    {
      "inputs": [
        {
          "internalType": "bytes4",
          "name": "interfaceId",
          "type": "bytes4"
        }
      ],
      "name": "supportsInterface",
      "outputs": [
        {
          "internalType": "bool",
          "name": "",
          "type": "bool"
        }
      ],
      "stateMutability": "view",
      "type": "function"
    },
    {
      "inputs": [],
      "name": "symbol",
      "outputs": [
        {
          "internalType": "string",
          "name": "",
          "type": "string"
        }
      ],
      "stateMutability": "view",
      "type": "function"
    },
    {
      "inputs": [
        {
          "internalType": "uint256",
          "name": "tokenId",
          "type": "uint256"
        }
      ],
      "name": "tokenURI",
      "outputs": [
        {
          "internalType": "string",
          "name": "",
          "type": "string"
        }
      ],
      "stateMutability": "view",
      "type": "function"
    },
    {
      "inputs": [
        {
          "internalType": "address",
          "name": "from",
          "type": "address"
        },
        {
          "internalType": "address",
          "name": "to",
          "type": "address"
        },
        {
          "internalType": "uint256",
          "name": "tokenId",
          "type": "uint256"
        }
      ],
      "name": "transferFrom",
      "outputs": [],
      "stateMutability": "nonpayable",
      "type": "function"
    },
    {
      "inputs": [
        {
          "internalType": "address",
          "name": "newOwner",
          "type": "address"
        }
      ],
      "name": "transferOwnership",
      "outputs": [],
      "stateMutability": "nonpayable",
      "type": "function"
    },
    {
      "inputs": [
        {
          "internalType": "address",
          "name": "",
          "type": "address"
        }
      ],
      "name": "whitelisted",
      "outputs": [
        {
          "internalType": "bool",
          "name": "",
          "type": "bool"
        }
      ],
      "stateMutability": "view",
      "type": "function"
    }
  ],
  "transactionHash": "0xb549dc9540ec1c1146a5b9b7c6f9d62a207db8d1ebeb049687a74c53239fe323",
  "args": [
    "0x0e972f52C49e353Dc88C9f7F8e200c1cFE0d27b7",
    "ipfs://bafybeicwidbuunwcgfofmc32nmz4zkbaiqtrwid53ldurnqzydftpn4vri/"
  ],
  "numDeployments": 1,
  "solcInputHash": "132e76a8c31a15620373b4de6cc93c06",
  "bytecode": "0x60806040523480156200001157600080fd5b5060405162001c1738038062001c178339810160408190526200003491620005f9565b816040518060400160405280600b81526020016a2a37b931b43132b0b932b960a91b815250604051806040016040528060058152602001640a89ea486960db1b81525081600090816200008891906200077d565b5060016200009782826200077d565b5050506001600160a01b038116620000ca57604051631e4fbdf760e01b8152600060048201526024015b60405180910390fd5b620000d58162000122565b5060016007819055620000ea90839062000174565b6009620000f882826200077d565b50506001600160a01b03166000908152600860205260409020805460ff1916600117905562000849565b600680546001600160a01b038381166001600160a01b0319831681179093556040519116919082907f8be0079c531659141344cd1fd0a4f28419497f9722a3daafe3b4186f6b6457e090600090a35050565b6001600160a01b038216620001a057604051633250574960e11b815260006004820152602401620000c1565b6000620001af838383620001e3565b90506001600160a01b03811615620001de576040516339e3563760e11b815260006004820152602401620000c1565b505050565b6000828152600260205260408120546001600160a01b031680156200026c576001600160a01b03851660009081526008602052604090205460ff166200026c5760405162461bcd60e51b815260206004820152601960248201527f526563697069656e74206e6f742077686974656c6973746564000000000000006044820152606401620000c1565b6200027985858562000282565b95945050505050565b6000828152600260205260408120546001600160a01b0390811690831615620002b257620002b281848662000381565b6001600160a01b03811615620002f257620002d16000858180620003eb565b6001600160a01b038116600090815260036020526040902080546000190190555b6001600160a01b0385161562000322576001600160a01b0385166000908152600360205260409020805460010190555b60008481526002602052604080822080546001600160a01b0319166001600160a01b0389811691821790925591518793918516917fddf252ad1be2c89b69c2b068fc378daa952ba7f163c4a11628f55a4df523b3ef91a4949350505050565b6200038e83838362000519565b620001de576001600160a01b038316620003bf57604051637e27328960e01b815260048101829052602401620000c1565b60405163177e802f60e01b81526001600160a01b038316600482015260248101829052604401620000c1565b80806200040057506001600160a01b03821615155b15620004e95760006200041384620005a2565b90506001600160a01b03831615801590620004405750826001600160a01b0316816001600160a01b031614155b80156200047357506001600160a01b0380821660009081526005602090815260408083209387168352929052205460ff16155b156200049e5760405163a9fbf51f60e01b81526001600160a01b0384166004820152602401620000c1565b8115620004e75783856001600160a01b0316826001600160a01b03167f8c5be1e5ebec7d5bd14f71427d1e84f3dd0314c0f7b2291e5b200ac8c7c3b92560405160405180910390a45b505b5050600090815260046020526040902080546001600160a01b0319166001600160a01b0392909216919091179055565b60006001600160a01b038316158015906200059a5750826001600160a01b0316846001600160a01b031614806200057557506001600160a01b0380851660009081526005602090815260408083209387168352929052205460ff165b806200059a57506000828152600460205260409020546001600160a01b038481169116145b949350505050565b6000818152600260205260408120546001600160a01b031680620005dd57604051637e27328960e01b815260048101849052602401620000c1565b92915050565b634e487b7160e01b600052604160045260246000fd5b600080604083850312156200060d57600080fd5b82516001600160a01b03811681146200062557600080fd5b602084810151919350906001600160401b03808211156200064557600080fd5b818601915086601f8301126200065a57600080fd5b8151818111156200066f576200066f620005e3565b604051601f8201601f19908116603f011681019083821181831017156200069a576200069a620005e3565b816040528281528986848701011115620006b357600080fd5b600093505b82841015620006d75784840186015181850187015292850192620006b8565b60008684830101528096505050505050509250929050565b600181811c908216806200070457607f821691505b6020821081036200072557634e487b7160e01b600052602260045260246000fd5b50919050565b601f821115620001de57600081815260208120601f850160051c81016020861015620007545750805b601f850160051c820191505b81811015620007755782815560010162000760565b505050505050565b81516001600160401b03811115620007995762000799620005e3565b620007b181620007aa8454620006ef565b846200072b565b602080601f831160018114620007e95760008415620007d05750858301515b600019600386901b1c1916600185901b17855562000775565b600085815260208120601f198616915b828110156200081a57888601518255948401946001909101908401620007f9565b5085821015620008395787850151600019600388901b60f8161c191681555b5050505050600190811b01905550565b6113be80620008596000396000f3fe608060405234801561001057600080fd5b50600436106101365760003560e01c8063715018a6116100b8578063b88d4fde1161007c578063b88d4fde14610274578063c87b56dd14610287578063d936547e1461029a578063e43252d7146102bd578063e985e9c5146102d0578063f2fde38b146102e357600080fd5b8063715018a61461022d5780638ab1d681146102355780638da5cb5b1461024857806395d89b4114610259578063a22cb4651461026157600080fd5b806323b872dd116100ff57806323b872dd146101c057806342842e0e146101d357806355f804b3146101e65780636352211e146101f957806370a082311461020c57600080fd5b80624225b81461013b57806301ffc9a71461016057806306fdde0314610183578063081812fc14610198578063095ea7b3146101ab575b600080fd5b6101436102f6565b6040516001600160a01b0390911681526020015b60405180910390f35b61017361016e366004610e75565b610307565b6040519015158152602001610157565b61018b610359565b6040516101579190610edf565b6101436101a6366004610ef2565b6103eb565b6101be6101b9366004610f27565b610414565b005b6101be6101ce366004610f51565b610423565b6101be6101e1366004610f51565b6104b3565b6101be6101f4366004611019565b6104d3565b610143610207366004610ef2565b6104e7565b61021f61021a366004611062565b6104f2565b604051908152602001610157565b6101be61053a565b6101be610243366004611062565b61054e565b6006546001600160a01b0316610143565b61018b610663565b6101be61026f36600461107d565b610672565b6101be6102823660046110b9565b61067d565b61018b610295366004610ef2565b610694565b6101736102a8366004611062565b60086020526000908152604090205460ff1681565b6101be6102cb366004611062565b610750565b6101736102de366004611135565b610803565b6101be6102f1366004611062565b610831565b600061030260016104e7565b905090565b60006001600160e01b031982166380ac58cd60e01b148061033857506001600160e01b03198216635b5e139f60e01b145b8061035357506301ffc9a760e01b6001600160e01b03198316145b92915050565b60606000805461036890611168565b80601f016020809104026020016040519081016040528092919081815260200182805461039490611168565b80156103e15780601f106103b6576101008083540402835291602001916103e1565b820191906000526020600020905b8154815290600101906020018083116103c457829003601f168201915b5050505050905090565b60006103f68261086f565b506000828152600460205260409020546001600160a01b0316610353565b61041f8282336108a8565b5050565b6001600160a01b03821661045257604051633250574960e11b8152600060048201526024015b60405180910390fd5b600061045f8383336108b5565b9050836001600160a01b0316816001600160a01b0316146104ad576040516364283d7b60e01b81526001600160a01b0380861660048301526024820184905282166044820152606401610449565b50505050565b6104ce8383836040518060200160405280600081525061067d565b505050565b6104db61094f565b600961041f82826111f0565b60006103538261086f565b60006001600160a01b03821661051e576040516322718ad960e21b815260006004820152602401610449565b506001600160a01b031660009081526003602052604090205490565b61054261094f565b61054c600061097c565b565b61055661094f565b6001600160a01b03811660009081526008602052604090205460ff166105b05760405162461bcd60e51b815260206004820152600f60248201526e139bdd081dda1a5d195b1a5cdd1959608a1b6044820152606401610449565b806001600160a01b03166105c460016104e7565b6001600160a01b03160361061a5760405162461bcd60e51b815260206004820152601c60248201527f43616e6e6f742072656d6f76652063757272656e7420686f6c646572000000006044820152606401610449565b6001600160a01b038116600081815260086020526040808220805460ff19169055517f535611fb62fa2a833988f283b779e417e996813e44046f521d76c17b5943b08c9190a250565b60606001805461036890611168565b61041f3383836109ce565b610688848484610423565b6104ad84848484610a6d565b6060816001146106fe5760405162461bcd60e51b815260206004820152602f60248201527f4552433732314d657461646174613a2055524920717565727920666f72206e6f60448201526e3732bc34b9ba32b73a103a37b5b2b760891b6064820152608401610449565b60006009805461070d90611168565b9050116107295760405180602001604052806000815250610353565b600960405160200161073b91906112b0565b60405160208183030381529060405292915050565b61075861094f565b6001600160a01b03811660009081526008602052604090205460ff16156107b75760405162461bcd60e51b8152602060048201526013602482015272105b1c9958591e481dda1a5d195b1a5cdd1959606a1b6044820152606401610449565b6001600160a01b038116600081815260086020526040808220805460ff19166001179055517f4f783c179409b4127238bc9c990bc99b9a651666a0d20b51d6c42849eb88466d9190a250565b6001600160a01b03918216600090815260056020908152604080832093909416825291909152205460ff1690565b61083961094f565b6001600160a01b03811661086357604051631e4fbdf760e01b815260006004820152602401610449565b61086c8161097c565b50565b6000818152600260205260408120546001600160a01b03168061035357604051637e27328960e01b815260048101849052602401610449565b6104ce8383836001610b96565b6000828152600260205260408120546001600160a01b0316801561093b576001600160a01b03851660009081526008602052604090205460ff1661093b5760405162461bcd60e51b815260206004820152601960248201527f526563697069656e74206e6f742077686974656c6973746564000000000000006044820152606401610449565b610946858585610c9c565b95945050505050565b6006546001600160a01b0316331461054c5760405163118cdaa760e01b8152336004820152602401610449565b600680546001600160a01b038381166001600160a01b0319831681179093556040519116919082907f8be0079c531659141344cd1fd0a4f28419497f9722a3daafe3b4186f6b6457e090600090a35050565b6001600160a01b038216610a0057604051630b61174360e31b81526001600160a01b0383166004820152602401610449565b6001600160a01b03838116600081815260056020908152604080832094871680845294825291829020805460ff191686151590811790915591519182527f17307eab39ab6107e8899845ad3d59bd9653f200f220920489ca2b5937696c31910160405180910390a3505050565b6001600160a01b0383163b156104ad57604051630a85bd0160e11b81526001600160a01b0384169063150b7a0290610aaf90339088908790879060040161132e565b6020604051808303816000875af1925050508015610aea575060408051601f3d908101601f19168201909252610ae79181019061136b565b60015b610b53573d808015610b18576040519150601f19603f3d011682016040523d82523d6000602084013e610b1d565b606091505b508051600003610b4b57604051633250574960e11b81526001600160a01b0385166004820152602401610449565b805181602001fd5b6001600160e01b03198116630a85bd0160e11b14610b8f57604051633250574960e11b81526001600160a01b0385166004820152602401610449565b5050505050565b8080610baa57506001600160a01b03821615155b15610c6c576000610bba8461086f565b90506001600160a01b03831615801590610be65750826001600160a01b0316816001600160a01b031614155b8015610bf95750610bf78184610803565b155b15610c225760405163a9fbf51f60e01b81526001600160a01b0384166004820152602401610449565b8115610c6a5783856001600160a01b0316826001600160a01b03167f8c5be1e5ebec7d5bd14f71427d1e84f3dd0314c0f7b2291e5b200ac8c7c3b92560405160405180910390a45b505b5050600090815260046020526040902080546001600160a01b0319166001600160a01b0392909216919091179055565b6000828152600260205260408120546001600160a01b0390811690831615610cc957610cc9818486610d95565b6001600160a01b03811615610d0757610ce6600085600080610b96565b6001600160a01b038116600090815260036020526040902080546000190190555b6001600160a01b03851615610d36576001600160a01b0385166000908152600360205260409020805460010190555b60008481526002602052604080822080546001600160a01b0319166001600160a01b0389811691821790925591518793918516917fddf252ad1be2c89b69c2b068fc378daa952ba7f163c4a11628f55a4df523b3ef91a4949350505050565b610da0838383610df9565b6104ce576001600160a01b038316610dce57604051637e27328960e01b815260048101829052602401610449565b60405163177e802f60e01b81526001600160a01b038316600482015260248101829052604401610449565b60006001600160a01b03831615801590610e575750826001600160a01b0316846001600160a01b03161480610e335750610e338484610803565b80610e5757506000828152600460205260409020546001600160a01b038481169116145b949350505050565b6001600160e01b03198116811461086c57600080fd5b600060208284031215610e8757600080fd5b8135610e9281610e5f565b9392505050565b6000815180845260005b81811015610ebf57602081850181015186830182015201610ea3565b506000602082860101526020601f19601f83011685010191505092915050565b602081526000610e926020830184610e99565b600060208284031215610f0457600080fd5b5035919050565b80356001600160a01b0381168114610f2257600080fd5b919050565b60008060408385031215610f3a57600080fd5b610f4383610f0b565b946020939093013593505050565b600080600060608486031215610f6657600080fd5b610f6f84610f0b565b9250610f7d60208501610f0b565b9150604084013590509250925092565b634e487b7160e01b600052604160045260246000fd5b600067ffffffffffffffff80841115610fbe57610fbe610f8d565b604051601f8501601f19908116603f01168101908282118183101715610fe657610fe6610f8d565b81604052809350858152868686011115610fff57600080fd5b858560208301376000602087830101525050509392505050565b60006020828403121561102b57600080fd5b813567ffffffffffffffff81111561104257600080fd5b8201601f8101841361105357600080fd5b610e5784823560208401610fa3565b60006020828403121561107457600080fd5b610e9282610f0b565b6000806040838503121561109057600080fd5b61109983610f0b565b9150602083013580151581146110ae57600080fd5b809150509250929050565b600080600080608085870312156110cf57600080fd5b6110d885610f0b565b93506110e660208601610f0b565b925060408501359150606085013567ffffffffffffffff81111561110957600080fd5b8501601f8101871361111a57600080fd5b61112987823560208401610fa3565b91505092959194509250565b6000806040838503121561114857600080fd5b61115183610f0b565b915061115f60208401610f0b565b90509250929050565b600181811c9082168061117c57607f821691505b60208210810361119c57634e487b7160e01b600052602260045260246000fd5b50919050565b601f8211156104ce57600081815260208120601f850160051c810160208610156111c95750805b601f850160051c820191505b818110156111e8578281556001016111d5565b505050505050565b815167ffffffffffffffff81111561120a5761120a610f8d565b61121e816112188454611168565b846111a2565b602080601f831160018114611253576000841561123b5750858301515b600019600386901b1c1916600185901b1785556111e8565b600085815260208120601f198616915b8281101561128257888601518255948401946001909101908401611263565b50858210156112a05787850151600019600388901b60f8161c191681555b5050505050600190811b01905550565b60008083546112be81611168565b600182811680156112d657600181146112eb5761131a565b60ff198416875282151583028701945061131a565b8760005260208060002060005b858110156113115781548a8201529084019082016112f8565b50505082870194505b50603160f81b845290920195945050505050565b6001600160a01b038581168252841660208201526040810183905260806060820181905260009061136190830184610e99565b9695505050505050565b60006020828403121561137d57600080fd5b8151610e9281610e5f56fea2646970667358221220b951eab8e451c648669d3d9bbb7cb3247ca030bfdc8a3e32e3c5633295f08c6864736f6c63430008140033",
  "devdoc": {
    "errors": {
      "ERC721IncorrectOwner(address,uint256,address)": [
        {
          "details": "Indicates an error related to the ownership over a particular token. Used in transfers.",
          "params": {
            "owner": "Address of the current owner of a token.",
            "sender": "Address whose tokens are being transferred.",
            "tokenId": "Identifier number of a token."
          }
        }
      ],
      "ERC721InsufficientApproval(address,uint256)": [
        {
          "details": "Indicates a failure with the `operator`s approval. Used in transfers.",
          "params": {
            "operator": "Address that may be allowed to operate on tokens without being their owner.",
            "tokenId": "Identifier number of a token."
          }
        }
      ],
      "ERC721InvalidApprover(address)": [
        {
          "details": "Indicates a failure with the `approver` of a token to be approved. Used in approvals.",
          "params": {
            "approver": "Address initiating an approval operation."
          }
        }
      ],
      "ERC721InvalidOperator(address)": [
        {
          "details": "Indicates a failure with the `operator` to be approved. Used in approvals.",
          "params": {
            "operator": "Address that may be allowed to operate on tokens without being their owner."
          }
        }
      ],
      "ERC721InvalidOwner(address)": [
        {
          "details": "Indicates that an address can't be an owner. For example, `address(0)` is a forbidden owner in EIP-20. Used in balance queries.",
          "params": {
            "owner": "Address of the current owner of a token."
          }
        }
      ],
      "ERC721InvalidReceiver(address)": [
        {
          "details": "Indicates a failure with the token `receiver`. Used in transfers.",
          "params": {
            "receiver": "Address to which tokens are being transferred."
          }
        }
      ],
      "ERC721InvalidSender(address)": [
        {
          "details": "Indicates a failure with the token `sender`. Used in transfers.",
          "params": {
            "sender": "Address whose tokens are being transferred."
          }
        }
      ],
      "ERC721NonexistentToken(uint256)": [
        {
          "details": "Indicates a `tokenId` whose `owner` is the zero address.",
          "params": {
            "tokenId": "Identifier number of a token."
          }
        }
      ],
      "OwnableInvalidOwner(address)": [
        {
          "details": "The owner is not a valid owner account. (eg. `address(0)`)"
        }
      ],
      "OwnableUnauthorizedAccount(address)": [
        {
          "details": "The caller account is not authorized to perform an operation."
        }
      ],
      "ReentrancyGuardReentrantCall()": [
        {
          "details": "Unauthorized reentrant call."
        }
      ]
    },
    "events": {
      "Approval(address,address,uint256)": {
        "details": "Emitted when `owner` enables `approved` to manage the `tokenId` token."
      },
      "ApprovalForAll(address,address,bool)": {
        "details": "Emitted when `owner` enables or disables (`approved`) `operator` to manage all of its assets."
      },
      "Transfer(address,address,uint256)": {
        "details": "Emitted when `tokenId` token is transferred from `from` to `to`."
      }
    },
    "kind": "dev",
    "methods": {
      "approve(address,uint256)": {
        "details": "See {IERC721-approve}."
      },
      "balanceOf(address)": {
        "details": "See {IERC721-balanceOf}."
      },
      "getApproved(uint256)": {
        "details": "See {IERC721-getApproved}."
      },
      "isApprovedForAll(address,address)": {
        "details": "See {IERC721-isApprovedForAll}."
      },
      "name()": {
        "details": "See {IERC721Metadata-name}."
      },
      "owner()": {
        "details": "Returns the address of the current owner."
      },
      "ownerOf(uint256)": {
        "details": "See {IERC721-ownerOf}."
      },
      "renounceOwnership()": {
        "details": "Leaves the contract without owner. It will not be possible to call `onlyOwner` functions. Can only be called by the current owner. NOTE: Renouncing ownership will leave the contract without an owner, thereby disabling any functionality that is only available to the owner."
      },
      "safeTransferFrom(address,address,uint256)": {
        "details": "See {IERC721-safeTransferFrom}."
      },
      "safeTransferFrom(address,address,uint256,bytes)": {
        "details": "See {IERC721-safeTransferFrom}."
      },
      "setApprovalForAll(address,bool)": {
        "details": "See {IERC721-setApprovalForAll}."
      },
      "supportsInterface(bytes4)": {
        "details": "See {IERC165-supportsInterface}."
      },
      "symbol()": {
        "details": "See {IERC721Metadata-symbol}."
      },
      "tokenURI(uint256)": {
        "details": "See {IERC721Metadata-tokenURI}."
      },
      "transferFrom(address,address,uint256)": {
        "details": "See {IERC721-transferFrom}."
      },
      "transferOwnership(address)": {
        "details": "Transfers ownership of the contract to a new account (`newOwner`). Can only be called by the current owner."
      }
    },
    "version": 1
  },
  "userdoc": {
    "kind": "user",
    "methods": {},
    "version": 1
  },
  "storageLayout": {
    "storage": [
      {
        "astId": 317,
        "contract": "contracts/Torch.sol:Torch",
        "label": "_name",
        "offset": 0,
        "slot": "0",
        "type": "t_string_storage"
      },
      {
        "astId": 319,
        "contract": "contracts/Torch.sol:Torch",
        "label": "_symbol",
        "offset": 0,
        "slot": "1",
        "type": "t_string_storage"
      },
      {
        "astId": 323,
        "contract": "contracts/Torch.sol:Torch",
        "label": "_owners",
        "offset": 0,
        "slot": "2",
        "type": "t_mapping(t_uint256,t_address)"
      },
      {
        "astId": 327,
        "contract": "contracts/Torch.sol:Torch",
        "label": "_balances",
        "offset": 0,
        "slot": "3",
        "type": "t_mapping(t_address,t_uint256)"
      },
      {
        "astId": 331,
        "contract": "contracts/Torch.sol:Torch",
        "label": "_tokenApprovals",
        "offset": 0,
        "slot": "4",
        "type": "t_mapping(t_uint256,t_address)"
      },
      {
        "astId": 337,
        "contract": "contracts/Torch.sol:Torch",
        "label": "_operatorApprovals",
        "offset": 0,
        "slot": "5",
        "type": "t_mapping(t_address,t_mapping(t_address,t_bool))"
      },
      {
        "astId": 8,
        "contract": "contracts/Torch.sol:Torch",
        "label": "_owner",
        "offset": 0,
        "slot": "6",
        "type": "t_address"
      },
      {
        "astId": 1497,
        "contract": "contracts/Torch.sol:Torch",
        "label": "_status",
        "offset": 0,
        "slot": "7",
        "type": "t_uint256"
      },
      {
        "astId": 3020,
        "contract": "contracts/Torch.sol:Torch",
        "label": "whitelisted",
        "offset": 0,
        "slot": "8",
        "type": "t_mapping(t_address,t_bool)"
      },
      {
        "astId": 3022,
        "contract": "contracts/Torch.sol:Torch",
        "label": "_baseTokenURI",
        "offset": 0,
        "slot": "9",
        "type": "t_string_storage"
      }
    ],
    "types": {
      "t_address": {
        "encoding": "inplace",
        "label": "address",
        "numberOfBytes": "20"
      },
      "t_bool": {
        "encoding": "inplace",
        "label": "bool",
        "numberOfBytes": "1"
      },
      "t_mapping(t_address,t_bool)": {
        "encoding": "mapping",
        "key": "t_address",
        "label": "mapping(address => bool)",
        "numberOfBytes": "32",
        "value": "t_bool"
      },
      "t_mapping(t_address,t_mapping(t_address,t_bool))": {
        "encoding": "mapping",
        "key": "t_address",
        "label": "mapping(address => mapping(address => bool))",
        "numberOfBytes": "32",
        "value": "t_mapping(t_address,t_bool)"
      },
      "t_mapping(t_address,t_uint256)": {
        "encoding": "mapping",
        "key": "t_address",
        "label": "mapping(address => uint256)",
        "numberOfBytes": "32",
        "value": "t_uint256"
      },
      "t_mapping(t_uint256,t_address)": {
        "encoding": "mapping",
        "key": "t_uint256",
        "label": "mapping(uint256 => address)",
        "numberOfBytes": "32",
        "value": "t_address"
      },
      "t_string_storage": {
        "encoding": "bytes",
        "label": "string",
        "numberOfBytes": "32"
      },
      "t_uint256": {
        "encoding": "inplace",
        "label": "uint256",
        "numberOfBytes": "32"
      }
    }
  }
}